S00B00005254432E7372656330
S11300000C942A000C9486000C94AD000C94D4003B
S11300100C9447000C9447000C9447000C947D0703
S11300200C9447000C9447000C9447000C94470030
S11300300C9447000C9447000C9447000C94470020
S11300400C9447000C9447000C9447000C94470010
S11300500C94470011241FBECFE5D8E0DEBFCDBF0E
S113006010E0A0E6B0E0E8E3F3E202C005900D92F0
S1130070AC39B107D9F721E0ACE9B0E001C01D9279
S1130080A531B207E1F70E947D040C949A110C94F7
S11300900000FC01808181110BC08181823021F438
S11300A084B78F7B84BF1DC084B7806484BF19C0AC
S11300B085B7807F85BF2081213029F495B7818160
S11300C0892B85BF0EC045B7918130E0220F331FC5
S11300D0892F90E002C0880F991F2A95E2F7842B9C
S11300E085BF4BB7208130E02B5F3F4F81E090E02C
S11300F002C0880F991F2A95E2F7842B8BBF78944E
S1130100089590939D0080939C0008951F920F92F0
S11301100FB60F9211242F933F934F935F936F93D6
S11301207F938F939F93AF93BF93EF93FF93E0914C
S11301309C00F0919D000995FF91EF91BF91AF91C3
S11301409F918F917F916F915F914F913F912F91EB
S11301500F900FBE0F901F9018951F920F920FB61D
S11301600F9211242F933F934F935F936F937F9339
S11301708F939F93AF93BF93EF93FF93E0919C0072
S1130180F0919D000995FF91EF91BF91AF919F91DF
S11301908F917F916F915F914F913F912F910F902C
S11301A00FBE0F901F9018951F920F920FB60F92CB
S11301B011242F933F934F935F936F937F938F9368
S11301C09F93AF93BF93EF93FF93E0919C00F091C3
S11301D09D000995FF91EF91BF91AF919F918F91F0
S11301E07F916F915F914F913F912F910F900FBE2F
S11301F00F901F901895DC01FB018181813099F4E7
S1130200808111969C911197892B11968C9311974B
S11302108281813081F4808112969C911297892B7E
S113022012968C9308959081909511968C911197C4
S1130230982311969C930895442329F0FC0122816C
S1130240622B628308956095FC012281622362839C
S113025008958F929F92AF92BF92CF92DF92EF92C6
S1130260FF920F93CF93DF93EC01288139814A8168
S11302705B8160E074E284EF90E00E942410490105
S11302805A01392D4A2D5B2D60E070E080E090E04A
S1130290A0EF0E94641001E00E94481020B98C81F4
S11302A082B916BE11B88D81813029F4789486B74D
S11302B0816086BF03C086B78E7F86BFDF91CF91F2
S11302C00F91FF90EF90DF90CF90BF90AF909F90F1
S11302D08F9008950F93FC0137832683008784EA67
S11302E086BF06B607FEFDCF63B984E886BF06B6AF
S11302F007FEFDCF43B984E886BF06B607FEFDCFEF
S11303000DC0A681B781CD010196978386838C9118
S113031083B984E886BF06B607FEFDCF80859FEFCC
S1130320980F90878111EDCF84E986BF81E00F910A
S113033008950F93FC0137832683008784EA86BFE0
S113034006B607FEFDCF63B984E886BF06B607FE8E
S1130350FDCF43B984E886BF06B607FEFDCF84EA25
S113036086BF06B607FEFDCF616063B984E886BF29
S113037006B607FEFDCF0DC084EC86BF06B607FEA9
S1130380FDCFA681B781CD0101969783868383B182
S11303908C9380859FEF980F90878111EDCF84E82F
S11303A086BF06B607FEFDCF84E986BF81E00F91C4
S11303B0089586E690E00E9429010895382F3F7041
S11303C0982F92959F70990F292F220F220F892F12
S11303D0820F830F0895EF92FF920F931F93CF9391
S11303E0DF9300D000D01F92CDB7DEB77C0103E0CD
S11303F09E012F5F3F4F40E060ED86E690E00E9453
S113040099018B81982F907486FD05C0F701828134
S11304108F7782830BC0911104C091E0F70194831C
S113042003C092E0F70194838F718B838A81082F34
S11304300F778981182F1F77F7018381823081F428
S11304408B810E94DE01F7018283802F0E94DE01EE
S1130450F7018183812F0E94DE01F701808305C0AB
S11304608B81F7018283018310830F900F900F908B
S11304700F900F90DF91CF911F910F91FF90EF900C
S11304800895EF92FF920F93CF93DF9300D000D0A3
S11304901F92CDB7DEB77C0104E09E012F5F3F4F72
S11304A043E060ED86E690E00E949901F7018481C3
S11304B0823081F48A810E94DE01F70181838B817D
S11304C00E94DE01F70182838C810E94DE01F70124
S11304D0838307C08A81F70181838B8182838C8126
S11304E083838981F70180830F900F900F900F9081
S11304F00F90DF91CF910F91FF90EF900895843684
S1130500D8F48823D9F09DEC899F912D1124492F8B
S1130510469546954695440F242F220F220F420FED
S1130520841B482F96959695969580E1989F900107
S11305301124842F822B089589E9089580E0089579
S11305400F931F93CF93DF9300D000D01F92CDB7AA
S1130550DEB78C01FC018381823079F482810E94B0
S11305607F028B83F80181810E947F028A83F801D4
S113057080810E947F0289830AC0F80182818F777B
S11305808B8381818F778A8380818F778983F80138
S11305908481882349F0823021F48B8180648B83A9
S11305A003C08B8180668B8303E09E012F5F3F4FE6
S11305B040E060ED86E690E00E946A010F900F90A3
S11305C00F900F900F90DF91CF911F910F9108958D
S11305D00F931F93CF93DF9300D000D01F92CDB71A
S11305E0DEB78C01FC018481823079F481810E9420
S11305F07F028A83F80183810E947F028C83F80141
S113060082810E947F028B8309C0F80181818F73EC
S11306108A8383818C8382818F738B83F8018081A9
S1130620898304E09E012F5F3F4F43E060ED86E63F
S113063090E00E946A010F900F900F900F900F901E
S1130640DF91CF911F910F910895EF92FF920F9335
S11306501F93CF93DF9300D01F92CDB7DEB77C01F9
S113066081E08A831B8200E010E012C0F801EE0FE3
S1130670FF1FE00FF11FEE0DFF1D82818983BE0174
S11306806F5F7F4F808191810E94FB000F5F1F4F3E
S1130690063011055CF300E010E012C0F801EE0F23
S11306A0FF1FE00FF11FEE0DFF1D84898983BE013A
S11306B06F5F7F4F828993890E94FB000F5F1F4FFA
S11306C0043011055CF30F900F900F90DF91CF91E0
S11306D01F910F91FF90EF900895DF92EF92FF9298
S11306E00F931F93CF93DF93062FEA019DEC899F0D
S11306F0D12C1124D694D694D694DD0C9D2D990F2B
S1130700990FD90E982F9D19D92E8823B9F09DECF5
S1130710899F812D112486958695869589F01DECF7
S1130720819F112D1124169516951695110F912F51
S1130730990F990F190F811B182F03C010E001C0E6
S113074010E0E12CF12C18C0412F50E00E2C02C017
S1130750559547950A94E2F74170F701EE0FFF1F94
S1130760EE0DFF1DEC0FFD1F6489828993890E94A1
S11307701C01EFEFEE1AFE0AF4E0EF16F10424F385
S113078010E07801EE0CFF1CE00EF11EEC0EFD1ED5
S113079041E0F7016281808191810E941C0181E026
S11307A090E00E94160E40E0F70162818081918101
S11307B00E941C01E12CF12C18C04D2D50E00E2C90
S11307C002C0559547950A94E2F74170F701EE0F80
S11307D0FF1FEE0DFF1DEC0FFD1F648982899389B5
S11307E00E941C01FFEFEF1AFF0A84E0E816F104EF
S11307F024F30F5F1F4FC801880F991F080F191F9B
S1130800C00FD11F41E06A81888199810E941C0137
S113081086E090E00E94160E40E06A81888199810A
S11308200E941C01DF91CF911F910F91FF90EF90D7
S1130830DF900895CF93DF93CBEFD0E081E08883FE
S11308401982CE010E94490082E088831982CE0178
S11308500E94490018821982CE010E944900DF914A
S1130860CF91089520E040E050E06EE970E080917F
S11308700101909102010E94990980919E0091E0EA
S1130880980F90939E00813011F410929E00089569
S1130890CF93DF9300D0CDB7DEB71A82198220E060
S11308A04FEF5FEFBE016F5F7F4F80910101909129
S11308B002010E94D30989819A81892B69F480916C
S11308C0FF00909100010E94800E80910F01909191
S11308D010010E94780C0CC080910F0190911001BE
S11308E00E94800E8091FF00909100010E94780C7C
S11308F085E090E00E94160ED2CF0E94D90189E7CC
S113090090E00E94250384E790E00E94A0028FE615
S113091090E00E94E8020E941A0482E394E00E949C
S1130920810081E00E948B099093FE008093FD007A
S113093040E06AE081E00E94BF0890930401809344
S1130940030140E061E081E00E94BF08909302014E
S1130950809301010F2EFFEFEF2EF0E0FF2EF02D1C
S113096001E020E030E048EC50E060E070E085EE2B
S113097094E00E94240C0F2EFFE0EF2EF1E0FF2EF6
S1130980F02D20E030E048EC50E060E070E08BE1D6
S113099095E00E94240CE12CF12C03E020E030E0EF
S11309A048EC50E060E070E081E595E00E94240CA2
S11309B020E030E045E550E060E070E088E494E059
S11309C00E94240C0E94BA0CFFCFCF93DF93CDB7C3
S11309D0DEB72A970FB6F894DEBF0FBECDBFFE0177
S11309E031968AE0DF011D928A95E9F782E08C83D3
S11309F020E041E050E0BE016F5F7F4F8091030132
S1130A00909104010E94D30949E750E060E08B8192
S1130A100E946D0349E750E062E08A810E946D0301
S1130A2049E750E064E089810E946D0381E090E031
S1130A300E94160EDDCFCF93DF93CDB7DEB72A9792
S1130A400FB6F894DEBF0FBECDBFFE0131968AE02B
S1130A50DF011D928A95E9F782E08A8720E041E070
S1130A6050E0BE016F5F7F4F8091030190910401BC
S1130A700E94D30949E750E060E089850E946D0334
S1130A8049E750E062E088850E946D0349E750E041
S1130A9064E08F810E946D0381E090E00E94160E55
S1130AA0DDCFCF93DF93CDB7DEB72A970FB6F89497
S1130AB0DEBF0FBECDBFFE0131968AE0DF011D927D
S1130AC08A95E9F782E08A878C8380910F0190915F
S1130AD010010E94800E20E041E050E060E070E0F0
S1130AE08091FD009091FE000E94D309CE010196F1
S1130AF00E94EB01CE0106960E94410220E040E0F4
S1130B0050E060E070E08091FD009091FE000E9452
S1130B10E90822E040E050E0BE016F5F7F4F809122
S1130B200301909104010E94E9088CEB92E00E9479
S1130B30160ED1CFFC010396928381832FEF3FEFF2
S1130B4034832383968385839087878310820895D3
S1130B50FC01118610860895CF93DF939C01FB015D
S1130B60DC011196CD91DC911297D383C2838C81E1
S1130B709D81958384838C819D81DC0113967C9374
S1130B806E9312977D836C8331872087F90180816E
S1130B908F5F8083DF91CF910895CF93DF93EB0133
S1130BA0488159814F3F2FEF520721F4FC01A7815F
S1130BB0B0850DC0DC01139601C0DF011296ED91E2
S1130BC0FC9113972081318142175307B0F7129695
S1130BD0ED91FC911397FB83EA83D583C483BD8392
S1130BE0AC831396DC93CE93129799878887FC0184
S1130BF020812F5F2083DF91CF910895CF93DF93DE
S1130C00FC01A085B185C281D381848195819D83B6
S1130C108C83C481D581828193819B838A8311963D
S1130C208D919C911297E817F90731F4848195818D
S1130C3012969C938E931197118610868C918150F5
S1130C408C93DF91CF9108951BBC89EF8ABD8BE013
S1130C508EBD89B7806189BF089531E1FC0130837D
S1130C60319722E220833197A3E3A08331976083F5
S1130C703197708331971082319760E860833197A0
S1130C801082319762E06083319763E0608331972B
S1130C9064E06083319765E06083319766E0608348
S1130CA0319767E06083319768E06083319769E04A
S1130CB06083319760E1608331973083319732E10B
S1130CC03083319733E13083319734E13083319786
S1130CD035E13083319736E13083319737E1308322
S1130CE0319738E13083319739E13083319730E2FD
S1130CF03083319731E2308331972083319723E277
S1130D0020833197408331975083319726E22083A3
S1130D10319727E22083319728E22083319729E213
S1130D202083319720E32083319721E32083869722
S1130D3008950E942406A091F900B091FA00CD9183
S1130D40CDBFDD91DEBFFF91EF91DF91CF91BF91D8
S1130D50AF919F918F917F916F915F914F913F914F
S1130D602F911F910F91FF90EF90DF90CF90BF9044
S1130D70AF909F908F907F906F905F904F903F9037
S1130D802F901F900F900FBE0F90089581E008954B
S1130D900F920FB6F8940F921F9211242F923F9244
S1130DA04F925F926F927F928F929F92AF92BF9277
S1130DB0CF92DF92EF92FF920F931F932F933F9363
S1130DC04F935F936F937F938F939F93AF93BF934F
S1130DD0CF93DF93EF93FF93A091F900B091FA00C2
S1130DE00DB60D920EB60D920E942C0EA091F90034
S1130DF0B091FA00CD91CDBFDD91DEBFFF91EF91AF
S1130E00DF91CF91BF91AF919F918F917F916F911E
S1130E105F914F913F912F911F910F91FF90EF9010
S1130E20DF90CF90BF90AF909F908F907F906F9006
S1130E305F904F903F902F901F900F900FBE0F9098
S1130E4008950F920FB6F8940F921F9211242F92C7
S1130E503F924F925F926F927F928F929F92AF9246
S1130E60BF92CF92DF92EF92FF920F931F932F9333
S1130E703F934F935F936F937F938F939F93AF931E
S1130E80BF93CF93DF93EF93FF93A091F900B091B9
S1130E90FA000DB60D920EB60D920E94EA0C811165
S1130EA00E942C0EA091F900B091FA00CD91CDBF13
S1130EB0DD91DEBFFF91EF91DF91CF91BF91AF91B3
S1130EC09F918F917F916F915F914F913F912F915E
S1130ED01F910F91FF90EF90DF90CF90BF90AF9054
S1130EE09F908F907F906F905F904F903F902F9046
S1130EF01F900F900FBE0F9008950E942107189520
S1130F00CF93DF93EC010E94E40CCE010E94701099
S1130F10EC010E94A40DCE01DF91CF910895CF93EF
S1130F20DF93009741F0EC010E94E40CCE010E9493
S1130F3008110E94A40DDF91CF9108950FB6F89483
S1130F400F92FC01828D811102C081E001C080E01A
S1130F500F900FBE08950FB6F8940F92FC01228DE6
S1130F60838D281302C081E001C080E00F900FBE82
S1130F7008950F931F93CF93DF93EC01042F1A8DE1
S1130F804C8D41110CC088819981892B09F042C094
S1130F908A819B810E94D20F1B821A8242C0011156
S1130FA017C050E08C819D810E9491112C8D8C8101
S1130FB09D81820F911D9D838C832A813B818217A1
S1130FC0930750F1888199819D838C8380E029C0A7
S1130FD050E08E819F810E9491118C8D90E09195BB
S1130FE0819591092E813F81280F391F3F832E83DC
S1130FF0488159812417350730F42A813B81820FB7
S1131000931F9F838E83023049F4112349F01150BA
S113101080E007C080E005C080E003C080E001C03C
S113102080E01F5F1A8FDF91CF911F910F91089578
S1131030FC01448D4423A9F050E026813781240F1C
S1131040351F37832683828193812817390720F03F
S11310508081918197838683CB01668177810E9409
S1131060911108951F93CF93DF93EC010FB6F89479
S11310700F921E8D0BC08989882351F0CE014196B1
S11310800E94E00E81110E946C0F115011169CF306
S11310908FEF8E8F0F900FBE0FB6F8940F921D8DA9
S11310A00BC08885882351F0CE0108960E94E00E7B
S11310B081110E946C0F115011169CF38FEF8D8FCC
S11310C00F900FBEDF91CF911F910895CF93DF93BF
S11310D0EC010FB6F8940F92E881F9818B8D90E0C2
S11310E02C8D30E0829FA001839F500D929F500D64
S11310F011244E0F5F1F5B834A831A8EFD83EC839A
S11311000197289FA001299F500D389F500D11244D
S1131110CF01840F951F9F838E838FEF8D8F8E8FCA
S113112061110CC08885882389F0CE0108960E943D
S1131130E00E882359F00E94C80608C0CE01089624
S11311400E949A05CE0141960E949A050F900FBE07
S113115081E0DF91CF9108950F931F93F8016111FE
S113116003C01183008302C051834083838F648F43
S113117061E0CF010E9466081F910F910895DF92EC
S1131180EF92FF920F931F93CF93DF93E82EF62EE7
S1131190D42E662321F0869FC001112402C080E072
S11311A090E04F960E948007EC01009749F08C0173
S11311B02D2DAC01415E5F4F6F2D8E2D0E94AC082A
S11311C0CE01DF91CF911F910F91FF90EF90DF90AF
S11311D00895CF92DF92EF92FF920F931F93CF93D4
S11311E0DF9300D000D01F92CDB7DEB78C017B0116
S11311F05D834C83C22ED12C0FB6F8940F92F80164
S1131200928D838D981718F0F2E0CF1219C04C2DEF
S1131210B701C8010E94B907F8019189992349F0DF
S1131220C80141960E94E00E882331F00E94C8064E
S113123003C081110E94C8060F900FBE81E04DC00B
S11312408C819D81892B21F40F900FBE80E045C0D5
S1131250D11006C0CE0101960E94280FDD24D3943C
S11312600F900FBE0E94E40C0FB6F8940F92F80191
S1131270858D8F3F09F4158EF801868D8F3F09F413
S1131280168E0F900FBEBE016C5F7F4FCE0101968C
S11312900E94330F81111BC0C8010E94AB07882331
S11312A081F06C817D81C80108960E94CE0EC80130
S11312B00E9432080E94A40D81119ECF0E94C8068C
S11312C09BCFC8010E9432080E94A40D95CFC8018B
S11312D00E9432080E94A40D80E00F900F900F909E
S11312E00F900F90DF91CF911F910F91FF90EF908E
S11312F0DF90CF900895009769F0FC011382128269
S113130011821082168220E040E050E060E070E03C
S11313100E94E9080895CF93DF93482F60E081E0AD
S11313200E94BF08EC010E947B09CE01DF91CF919E
S11313300895EF92FF920F931F93CF93DF938A0147
S1131340FC01528D338D531710F02230F1F4422FEB
S11313507801EC011E8D0E94B9071F3F81F4898931
S11313608823A9F0CE0141960E94E00E882389F0DB
S1131370E114F10481F081E0F70180830DC0FF24C2
S1131380F394F10EFE8E81E007C080E005C081E099
S113139003C081E001C081E0DF91CF911F910F91E3
S11313A0FF90EF9008958F929F92BF92CF92DF9219
S11313B0EF92FF920F931F93CF93DF9300D000D04F
S11313C01F92CDB7DEB78C016B015D834C83B22EC7
S11313D0E12C0FB6F8940F92F801F28CFF2091F1F2
S11313E086809780B601C8010E941808B11019C000
S11313F0FA94F801F28E80819181892B29F40E945C
S11314001210F80193838283F80180858823B1F058
S1131410C80108960E94E00E882381F00E94C80645
S11314200DC0F801978286828189882339F0C8012A
S113143041960E94E00E81110E94C8060F900FBED3
S113144081E061C08C819D81892B21F40F900FBEB6
S113145080E059C0E11006C0CE0101960E94280F19
S1131460EE24E3940F900FBE0E94E40C0FB6F894A0
S11314700F92F801858D8F3F09F4158EF801868D42
S11314808F3F09F4168E0F900FBEBE016C5F7F4F25
S1131490CE0101960E94330F811129C0C8010E9418
S11314A09E078823F1F0F80180819181892B49F40A
S11314B00FB6F8940F92828193810E94700F0F905F
S11314C00FBE6C817D81C80141960E94CE0EC80179
S11314D00E9432080E94A40D81117BCF0E94C8068D
S11314E078CFC8010E9432080E94A40D72CFC801AF
S11314F00E9432080E94A40DC8010E949E078823FE
S113150009F467CF80E00F900F900F900F900F9029
S1131510DF91CF911F910F91FF90EF90DF90CF90CB
S1131520BF909F908F900895FC01228533852D5A9A
S1131530304059F4FC0184899589F0E0863B9F078B
S113154031F0892B31F080E0089580E0089580E047
S1131550089581E00895E091C100F091C200808176
S1131560811107C08FEF9FEF9093A3008093A20097
S11315700895E091C100F091C2000580F681E02D4C
S11315800680F781E02D828193819093A30080935C
S1131590A20008956F927F928F929F92AF92BF9212
S11315A0CF92DF92EF920F931F93CF93DF93CDB738
S11315B0DEB74C01F5018789908D215031093C013A
S11315C0620E731E20E00FC0822F90E0FB01E80F33
S11315D0F91F3081D501A80FB91F59963C9380811A
S11315E0882319F02F5F283078F3F50110A2F3E077
S11315F0FE1520F40F2EF3E0EF2EF02DF501E68A10
S1131600E1A212A2C50102960E94A805C5010C968A
S11316100E94A805F501B186A08684E090E08E19A9
S1131620910995878487B38AA28A13A214A215A26A
S113163016A217A2A801B401C3010E942D06F50148
S113164091838083C114D10419F0F601B182A08280
S1131650DF91CF911F910F91EF90DF90CF90BF90CA
S1131660AF909F908F907F906F9008958091D50058
S11316708230E0F30E94C806F9CFCF93C0E010C0D7
S11316808C2F90E09C01220F331F220F331F220F57
S1131690331F820F931F8B529F4F0E949A05CF5F77
S11316A0C43070F38CEC90E00E949A0583EC90E0D7
S11316B00E949A0586EB90E00E949A058DEA90E0DC
S11316C00E949A058CEC90E09093C2008093C10034
S11316D083EC90E09093C0008093BF00CF91089575
S11316E0CF93DF93EC010FB6F8940F928091AC0086
S11316F08F5F8093AC008091F9009091FA00892B60
S113170059F4D093FA00C093F9008091AC00813071
S113171099F40E943D0B10C08091A80081110CC067
S1131720E091F900F091FA0096898E89891720F0EA
S1131730D093FA00C093F9008091A4008F5F809346
S1131740A4008E899091A900981710F48093A900A1
S113175090E09C01220F331F220F331F220F331FEF
S1131760820F931FBE016E5F7F4F8B529F4F0E946B
S1131770AC050F900FBE8091A800882351F0E09132
S1131780F900F091FA0096898E89981710F40E9456
S1131790C806DF91CF910895FF920F931F93CF93C3
S11317A0DF93EC01F62E0091AA001091AB0080911A
S11317B0F9009091FA0002960E94FE05CF3F8FEF48
S11317C0D80769F4FF2059F06091F9007091FA008C
S11317D06E5F7F4F8DEA90E00E94AC052FC0C00F72
S11317E0D11FE091F900F091FA00D383C283C017AE
S11317F0D10768F46091F9007091FA008091BF00FC
S11318009091C0006E5F7F4F0E94CD0517C060911C
S1131810F9007091FA008091C1009091C2006E5F4E
S11318207F4F0E94CD058091A2009091A300C8171C
S1131830D90720F4D093A300C093A200DF91CF91E5
S11318401F910F91FF9008952F923F924F925F92B4
S11318506F927F928F929F92AF92BF92CF92DF92BC
S1131860EF92FF920F931F93CF93DF933C011B01E1
S11318705A012901CA010E9480076C01892B71F069
S113188088E290E00E948007EC01892B19F0D88E41
S1131890CF8A06C0C6010E948F0702C0C0E0D0E014
S11318A0209791F0950140E050E0812C912C5E014D
S11318B06701E02E8201B101C3010E94CA0ACE0170
S11318C00E94700B81E001C08FEFDF91CF911F91D7
S11318D00F91FF90EF90DF90CF90BF90AF909F90CB
S11318E08F907F906F905F904F903F902F900895CE
S11318F00F931F93CF93DF930097B9F12091F900D1
S11319003091FA008217930781F1EC010FB6F89435
S11319100F920E94940A882331F18E010E5F1F4FAB
S1131920C8010E94FE058E899091A900981710F4B1
S11319308093A90090E09C01220F331F220F331FD4
S1131940220F331F820F931FB8018B529F4F0E94A7
S1131950AC059E89E091F900F091FA008689981708
S113196010F00E94C8060F900FBEDF91CF911F9117
S11319700F910895EF92FF920F930F2EF0EAEF2E3E
S1131980F0E0FF2EF02D00E020E030E045E550E0EF
S113199067E970E086E39BE00E94240C813081F4C7
S11319A0F8948FEF9FEF9093A3008093A20081E0BF
S11319B08093A8001092AB001092AA000E9499068E
S11319C00F91FF90EF90089580919F008F5F809317
S11319D09F000895DF92EF92FF920F931F93CF938E
S11319E0DF9380919F00811197C0E090AA00F0904E
S11319F0AB008FEFE81AF80AF092AB00E092AA006D
S1131A00E114F104B9F48091C1009091C2002091D5
S1131A10BF003091C0003093C2002093C100909366
S1131A20C0008093BF008091A5008F5F8093A500C4
S1131A300E94AB0A8091A2009091A300E816F906D7
S1131A4028F4D12C53C0DD24D39401C0D12CE091CF
S1131A50C100F091C2008081811107C08FEF9FEF18
S1131A609093A3008093A20041C0E091C100F09143
S1131A70C2000580F681E02DC681D7818A819B81D1
S1131A80E816F90628F49093A3008093A2002EC0D0
S1131A908E010E5F1F4FC8010E94FE058C899D892F
S1131AA0892B21F0CE010C960E94FE058E8990911F
S1131AB0A900981710F48093A90090E09C01220FCC
S1131AC0331F220F331F220F331F820F931FB801BE
S1131AD08B529F4F0E94AC059E89E091F900F091D2
S1131AE0FA008689981708F0AECFB1CFE091F900DB
S1131AF0F091FA00868990E0FC01EE0FFF1FEE0FD3
S1131B00FF1FEE0FFF1F8E0F9F1FFC01EB52FF4FB5
S1131B108081823040F409C08091A7008F5F809358
S1131B20A700D12C02C0DD24D3948091A600882381
S1131B3011F0DD24D3948D2DDF91CF911F910F915E
S1131B40FF90EF90DF9008950F931F93CF93DF934F
S1131B500FB6F8940F9280919F00815080939F005C
S1131B6080919F00811158C08091AC00811133C0D5
S1131B7056C0E091BB00F091BC00C681D781CE0174
S1131B800C960E94FE058E010E5F1F4FC8010E9435
S1131B90FE058E899091A900981710F48093A900EE
S1131BA090E09C01220F331F220F331F220F331F9B
S1131BB0820F931FB8018B529F4F0E94AC059E89E0
S1131BC0E091F900F091FA008689981730F081E0ED
S1131BD08093A60002C0C0E0D0E08091B6008111DD
S1131BE0C8CFCD2B11F00E94AB0AC091A700CC2323
S1131BF059F00E94EA0C882319F081E08093A60032
S1131C00C150B9F71092A7008091A600882331F043
S1131C100E94C80681E003C080E001C080E00F900C
S1131C200FBEDF91CF911F910F910895CF93DF9352
S1131C30EC01892B49F00E94E40C60E0CE010E9483
S1131C40CC0B0E94A40D01C080E0811102C00E944F
S1131C50C806DF91CF91089580919F00882321F0D9
S1131C6081E08093A60008951092A6002091A90017
S1131C7001C02150822F90E0FC01EE0FFF1FEE0FF8
S1131C80FF1FEE0FFF1FE80FF91FEB52FF4F3081CC
S1131C90332379F3AC01440F551F440F551F440FF0
S1131CA0551F480F591FDF010180F281E02D02808A
S1131CB0F381E02D1296FC93EE93119748525F4FF7
S1131CC0E417F50729F442815381FD0152834183CE
S1131CD0FC01EE0FFF1FEE0FFF1FEE0FFF1F8E0F15
S1131CE09F1FFC01EB52FF4F0180F281E02D8681A2
S1131CF097819093FA008093F9002093A9000895A6
S1131D000F931F93CF93DF93EC010FB6F8940F92C8
S1131D10892B21F4C091F900D091FA008E010E5F55
S1131D201F4FC8010E94FE058C899D89892B21F0D3
S1131D30CE010C960E94FE05B8018DEA90E00E9447
S1131D40AC050F900FBE8091A800882339F00FB620
S1131D50F8940F920E94AB0A0F900FBE8091F90085
S1131D609091FA00C817D907A1F48091A80088239C
S1131D7019F00E94C8060DC09091AD008091AC008E
S1131D80981305C01092FA001092F90002C00E9444
S1131D902C0EDF91CF911F910F910895CF93DF9374
S1131DA0EB016091F9007091FA00645F7F4F0E942B
S1131DB0CD0561E0CE010E94CC0BDF91CF91089557
S1131DC00F931F93CF93DF93DC011596ED91FC9154
S1131DD01697C681D7818E01045F1F4FC8010E94E8
S1131DE0FE0580919F0081111CC00A501109C80191
S1131DF00E94FE058E899091A900981710F4809393
S1131E00A90090E09C01220F331F220F331F220FE1
S1131E10331F820F931FB8018B529F4F0E94AC0552
S1131E2005C0B80186EB90E00E94AC059E89E09164
S1131E30F900F091FA008689891720F481E08093F3
S1131E40A60001C080E0DF91CF911F910F9108950A
S1131E502091A500FC0120832091AA003091AB00C1
S1131E603283218308950FB6F8940F924091AA000B
S1131E705091AB00DB012D913C912F3FBFEF3B070D
S1131E8019F1DC01FC91E091A500FE1739F01196DF
S1131E90ED91FC9112974E175F07C0F4DC01119687
S1131EA0ED91FC911297DA01AE1BBF0BA217B30799
S1131EB078F4DB01E41BF50B2E0F3F1F2D933C93AD
S1131EC00E94280F80E005C080E003C081E001C0CB
S1131ED081E00F900FBE089581E08093A6000895DD
S1131EE00F931F93CF93DF93FC01892B09F455C003
S1131EF02689A091F900B091FA0056968C91281782
S1131F0008F04BC084859585992364F0A091F9006D
S1131F10B091FA0056963C9184E090E0831B9109BD
S1131F20958784878285938530E0A901440F551FE6
S1131F30440F551F440F551F240F351F2B523F4F7D
S1131F408217930719F58F01EF012296CE010E94A3
S1131F50FE05E091F900F091FA008689F801868B7C
S1131F609091A900981710F48093A90090E09C0127
S1131F70220F331F220F331F220F331F820F931F91
S1131F80BE018B529F4F0E94AC0507C0A091F9007F
S1131F90B091FA0056968C91868BDF91CF911F9168
S1131FA00F9108950F931F93CF93DF93FC01892B17
S1131FB079F182A1815082A3268991A1291751F137
S1131FC081112AC0EF018F010E5F1F4FC8010E94CB
S1131FD0FE0589A18E8B24E030E0281B31093D8762
S1131FE02C879091A900981710F48093A90090E091
S1131FF09C01220F331F220F331F220F331F820F26
S1132000931FB8018B529F4F0E94AC0581E005C01D
S113201080E003C080E001C080E0DF91CF911F9198
S11320200F9108958091F9009091FA00892B39F06D
S1132030E091F900F091FA0082A18F5F82A3809170
S1132040F9009091FA000895A1E21A2EAA1BBB1B75
S1132050FD010DC0AA1FBB1FEE1FFF1FA217B30770
S1132060E407F50720F0A21BB30BE40BF50B661F86
S1132070771F881F991F1A9469F76095709580954A
S113208090959B01AC01BD01CF01089597FB10F819
S1132090169400080F93083098F00850232F342F1B
S11320A0452F562F672F782F892F902DF4CF059425
S11320B0979587957795679557954795379527957C
S11320C00A95AAF70F9108950024A7FD00942A0FFA
S11320D0301D401D501D601D701D801D901D0895F4
S11320E00F931F93CF93DF938230910510F482E016
S11320F090E0E0911301F091140120E030E0A0E0C1
S1132100B0E0309719F14081518102811381481761
S11321105907C8F08417950769F4109731F012969F
S11321200C93129713961C9327C0009313011093DA
S1132130140122C02115310519F04217530718F470
S11321409A01BD01EF01DF01F801DBCF2115310553
S1132150F9F0281B390B2430310580F48A819B81E6
S11321606115710521F0FB019383828304C0909370
S1132170140180931301FE01329644C0FE01E20F64
S1132180F31F8193919322503109398328833AC0F4
S11321902091110130911201232B41F4209162000E
S11321A0309163003093120120931101209160005B
S11321B0309161002115310541F42DB73EB74091AE
S11321C0640050916500241B350BE0911101F091DE
S11321D01201E217F307A0F42E1B3F0B281739074F
S11321E078F0AC014E5F5F4F2417350748F04E0F6F
S11321F05F1F50931201409311018193919302C088
S1132200E0E0F0E0CF01DF91CF911F910F910895AD
S1132210CF93DF93009709F481C0FC0132971382B6
S11322201282A0911301B0911401109781F42081BE
S11322303181820F931F20911101309112012817CF
S1132240390751F5F0931201E093110167C0ED01D4
S113225020E030E0CE17DF0740F44A815B819E0125
S113226041155105F1F0EA01F5CFD383C2834081D2
S11322705181840F951FC817D90759F48881998112
S1132280840F951F0296918380838A819B81938317
S113229082832115310529F4F0931401E09313018D
S11322A03DC0E901FB83EA8349915991C40FD51FCD
S11322B0EC17FD0761F480819181840F951F0296CC
S11322C0E90199838883828193819B838A83E0E0F7
S11322D0F0E012968D919C911397009719F0FD01EF
S11322E0DC01F7CF8D919C9111979D012E5F3F4F9B
S11322F0820F931F20911101309112012817390781
S113230069F4309729F4109214011092130102C059
S113231013821282B0931201A0931101DF91CF9125
S11323200895FB01DC0102C001900D924150504020
S10B2330D8F70895F894FFCFDB
S113233800001501200001000000D0020000000088
S1132348180A150200140A0200390001390002397A
S11323580004390008390010390020330010330014
S10F23682033004033008049444C450001
S9030000FC
