:100000000C942A000C9490000C94B7000C94DE0021
:100010000C9447000C9447000C9447000C94110872
:100020000C9447000C9447000C9447000C94470034
:100030000C9447000C9447000C9447000C94470024
:100040000C9447000C9447000C9447000C94470014
:100050000C94470011241FBECFE5D8E0DEBFCDBF12
:1000600010E0A0E6B0E0E0E6F4E202C005900D92F8
:10007000AC39B107D9F721E0ACE9B0E001C01D927D
:10008000A632B207E1F70E94C3040C942E120C941E
:100090000000FC01808181110BC08181823021F43C
:1000A00084B78F7B84BF1DC084B7806484BF19C0B0
:1000B00085B7807F85BF2081213029F495B7818164
:1000C000892B85BF0EC045B7918130E0220F331FC9
:1000D000892F90E002C0880F991F2A95E2F7842BA0
:1000E00085BF4BB7208130E02B5F3F4F81E090E030
:1000F00002C0880F991F2A95E2F7842B8BBF789452
:100100000895909309018093080108959093050143
:100110008093040108959093070180930601089548
:100120001F920F920FB60F9211242F933F934F936C
:100130005F936F937F938F939F93AF93BF93EF934F
:10014000FF93E0910801F09109010995FF91EF916A
:10015000BF91AF919F918F917F916F915F914F91DF
:100160003F912F910F900FBE0F901F9018951F92E7
:100170000F920FB60F9211242F933F934F935F93DB
:100180006F937F938F939F93AF93BF93EF93FF935F
:10019000E0910401F09105010995FF91EF91BF9164
:1001A000AF919F918F917F916F915F914F913F910F
:1001B0002F910F900FBE0F901F9018951F920F92C6
:1001C0000FB60F9211242F933F934F935F936F932A
:1001D0007F938F939F93AF93BF93EF93FF93E091A0
:1001E0000601F09107010995FF91EF91BF91AF9141
:1001F0009F918F917F916F915F914F913F912F913F
:100200000F900FBE0F901F901895DC01FB018181AC
:10021000813099F4808111969C911197892B1196C8
:100220008C9311978281813081F4808112969C9108
:100230001297892B12968C93089590819095119620
:100240008C911197982311969C930895442329F03B
:10025000FC012281622B628308956095FC0122815A
:100260006223628308958F929F92AF92BF92CF9242
:10027000DF92EF92FF920F93CF93DF93EC012881EF
:1002800039814A815B8160E074E284EF90E00E94F2
:10029000B81049015A01392D4A2D5B2D60E070E0FC
:1002A00080E090E0A0EF0E94F81001E00E94DC10D6
:1002B00020B98C8182B916BE11B88D81813029F4A4
:1002C000789486B7816086BF03C086B78E7F86BF6D
:1002D000DF91CF910F91FF90EF90DF90CF90BF9083
:1002E000AF909F908F9008950F93FC0137832683E2
:1002F000008784EA86BF06B607FEFDCF63B984E8AF
:1003000086BF06B607FEFDCF43B984E886BF06B6B2
:1003100007FEFDCF0DC0A681B781CD010196978361
:1003200086838C9183B984E886BF06B607FEFDCF2D
:1003300080859FEF980F90878111EDCF84E986BF6C
:1003400081E00F9108950F93FC0137832683008786
:1003500084EA86BF06B607FEFDCF63B984E886BF90
:1003600006B607FEFDCF43B984E886BF06B607FE92
:10037000FDCF84EA86BF06B607FEFDCF616063B994
:1003800084E886BF06B607FEFDCF0DC084EC86BFAD
:1003900006B607FEFDCFA681B781CD0101969783F2
:1003A000868383B18C9380859FEF980F908781110E
:1003B000EDCF84E886BF06B607FEFDCF84E986BF91
:1003C00081E00F91089586E690E00E943301089540
:1003D000382F3F70982F92959F70990F292F220FD9
:1003E000220F892F820F830F0895EF92FF920F93B0
:1003F0001F93CF93DF9300D000D01F92CDB7DEB70D
:100400007C0103E09E012F5F3F4F40E060ED86E6F8
:1004100090E00E94A3018B81982F907486FD05C007
:10042000F70182818F7782830BC0911104C091E024
:10043000F701948303C092E0F70194838F718B835B
:100440008A81082F0F778981182F1F77F701838101
:10045000823081F48B810E94E801F7018283802F32
:100460000E94E801F7018183812F0E94E801F701D2
:10047000808305C08B81F7018283018310830F90F5
:100480000F900F900F900F90DF91CF911F910F91D0
:10049000FF90EF900895EF92FF920F93CF93DF9329
:1004A00000D000D01F92CDB7DEB77C0104E09E01E2
:1004B0002F5F3F4F43E060ED86E690E00E94A3018E
:1004C000F7018481823081F48A810E94E801F7017A
:1004D00081838B810E94E801F70182838C810E94D5
:1004E000E801F701838307C08A81F70181838B814B
:1004F00082838C8183838981F70180830F900F90A1
:100500000F900F900F90DF91CF910F91FF90EF9090
:1005100008958436D8F48823D9F09DEC899F912DD5
:100520001124492F469546954695440F242F220FB6
:10053000220F420F841B482F96959695969580E141
:10054000989F90011124842F822B089589E90895A2
:1005500080E008950F931F93CF93DF9300D000D0D6
:100560001F92CDB7DEB78C01FC018381823079F414
:1005700082810E9489028B83F80181810E94890215
:100580008A83F80180810E94890289830AC0F80168
:1005900082818F778B8381818F778A8380818F7728
:1005A0008983F8018481882349F0823021F48B818A
:1005B00080648B8303C08B8180668B8303E09E0104
:1005C0002F5F3F4F40E060ED86E690E00E947401AF
:1005D0000F900F900F900F900F90DF91CF911F9180
:1005E0000F9108950F931F93CF93DF9300D000D006
:1005F0001F92CDB7DEB78C01FC018481823079F483
:1006000081810E9489028A83F80183810E94890284
:100610008C83F80182810E9489028B8309C0F801D2
:1006200081818F738A8383818C8382818F738B8393
:10063000F8018081898304E09E012F5F3F4F43E0F2
:1006400060ED86E690E00E9474010F900F900F908D
:100650000F900F90DF91CF911F910F910895EF921E
:10066000FF920F931F93CF93DF9300D01F92CDB7CC
:10067000DEB77C0181E08A831B8200E010E012C0BB
:10068000F801EE0FFF1FE00FF11FEE0DFF1D82813D
:100690008983BE016F5F7F4F808191810E94050138
:1006A0000F5F1F4F063011055CF300E010E012C031
:1006B000F801EE0FFF1FE00FF11FEE0DFF1D848903
:1006C0008983BE016F5F7F4F828993890E940501F4
:1006D0000F5F1F4F043011055CF30F900F900F90C8
:1006E000DF91CF911F910F91FF90EF900895DF92CE
:1006F000EF92FF920F931F93CF93DF93062FEA01A0
:100700009DEC899FD12C1124D694D694D694DD0CDF
:100710009D2D990F990FD90E982F9D19D92E8823A9
:10072000B9F09DEC899F812D11248695869586953B
:1007300089F01DEC819F112D1124169516951695A3
:10074000110F912F990F990F190F811B182F03C0AB
:1007500010E001C010E0E12CF12C18C0412F50E056
:100760000E2C02C0559547950A94E2F74170F701A7
:10077000EE0FFF1FEE0DFF1DEC0FFD1F6489828938
:1007800093890E942601EFEFEE1AFE0AF4E0EF16BD
:10079000F10424F310E07801EE0CFF1CE00EF11ED2
:1007A000EC0EFD1E41E0F7016281808191810E9483
:1007B000260181E090E00E94AA0E40E0F7016281EC
:1007C000808191810E942601E12CF12C18C04D2DD1
:1007D00050E00E2C02C0559547950A94E2F74170FF
:1007E000F701EE0FFF1FEE0DFF1DEC0FFD1F6489DB
:1007F000828993890E942601FFEFEF1AFF0A84E0A5
:10080000E816F10424F30F5F1F4FC801880F991FEA
:10081000080F191FC00FD11F41E06A81888199819B
:100820000E94260186E090E00E94AA0E40E06A81C4
:10083000888199810E942601DF91CF911F910F91AC
:10084000FF90EF90DF900895CF93DF93CAE0D1E05F
:1008500081E088831982CE010E94490082E088836A
:100860001982CE010E94490018821982CE010E948D
:100870004900DF91CF91089520E040E050E06CE91D
:1008800070E080911201909113010E942D0A8091D5
:100890009C0091E0980F90939C00813011F410928D
:1008A0009C000895CF93DF931F92CDB7DEB71982D6
:1008B00020E040E050E0BE016F5F7F4F809110016B
:1008C000909111010E942D0A0F90DF91CF91089510
:1008D000CF93DF931F92CDB7DEB781E0898320E00D
:1008E00040E050E0BE016F5F7F4F8091100190911A
:1008F00011010E942D0A0F90DF91CF910895CF939F
:10090000DF9300D0CDB7DEB71A82198220E04FEF17
:100910005FEFBE016F5F7F4F8091120190911301D5
:100920000E94670A89819A81892BA1F480910E0126
:1009300090910F010E94140F80912001909121014C
:100940000E940C0D0FB6F8940F9210929D000F901C
:100950000FBE14C080912001909121010E94140FBC
:1009600080910E0190910F010E940C0D0FB6F8942A
:100970000F9281E080939D000F900FBE85E090E084
:100980000E94AA0EC3CF0E94E30189E790E00E9473
:100990002F0384E790E00E94AA028FE690E00E9475
:1009A000F2020E9424048CE394E00E94810082E51C
:1009B00094E00E94860088E694E00E948B0081E02B
:1009C0000E941F0A90930D0180930C0140E06AE0A1
:1009D00081E00E945309909315018093140140E037
:1009E00061E081E00E94530990931301809312010A
:1009F00040E061E081E00E945309909311018093EF
:100A000010010F2EFEE0EF2EF1E0FF2EF02D01E0A1
:100A100020E030E048EC50E060E070E087E495E0F2
:100A20000E94B80C0F2EF0E2EF2EF1E0FF2EF02D19
:100A300020E030E048EC50E060E070E08EE695E0C9
:100A40000E94B80CE12CF12C03E020E030E048ECEF
:100A500050E060E070E085E995E00E94B80C20E08D
:100A600030E045E550E060E070E08FE794E00E9400
:100A7000B80C04E020E030E044E650E060E070E0D4
:100A80008EEC95E00E94B80C0E944E0DFFCF82E0E4
:100A90008093A10020E041E050E06EE970E0809199
:100AA0001401909115010E94670ACEE9D0E049E750
:100AB00050E060E08A810E94770349E750E062E0FD
:100AC00089810E94770349E750E064E088810E94B1
:100AD000770381E090E00E94AA0EDCCF82E0809351
:100AE000A70020E041E050E06EE970E08091140141
:100AF000909115010E94670ACEE9D0E049E750E0E5
:100B000060E088850E94770349E750E062E08F81CA
:100B10000E94770349E750E064E08E810E947703EA
:100B200081E090E00E94AA0EDCCFEEE9F0E082E0E6
:100B30008187838380912001909121010E94140F6D
:100B400020E04FEF5FEF60E070E080910C0190914A
:100B50000D010E94670A8EE990E00E94F50183EA88
:100B600090E00E944B0220E040E050E060E070E046
:100B700080910C0190910D010E947D0922E040E0DE
:100B800050E06EE970E080911401909115010E948F
:100B90007D0980E991E00E94AA0ED2CFCF93DF9326
:100BA0001F92CDB7DEB7198220E04FEF5FEFBE0195
:100BB0006F5F7F4F80911001909111010E94670A31
:100BC00020E04FEF5FEF60E070E080910C019091CA
:100BD0000D010E94670A8EE990E00E94F50183EA08
:100BE00090E00E944B020FB6F8940F9289818130F9
:100BF00081F480919D00811106C0EEE9F0E08081D2
:100C00008150808315C0EEE9F0E0868181508683B3
:100C10000FC080919D00811106C0EEE9F0E0808157
:100C20008F5F808305C0EEE9F0E086818F5F868369
:100C30000F900FBE8EE990E00E94AA0283EA90E036
:100C40000E94F20220E040E050E060E070E080911D
:100C50000C0190910D010E947D09A6CFFC01039625
:100C6000928381832FEF3FEF3483238396838583A1
:100C70009087878310820895FC011186108608955D
:100C8000CF93DF939C01FB01DC011196CD91DC91A8
:100C90001297D383C2838C819D81958384838C81B9
:100CA0009D81DC0113967C936E9312977D836C83F8
:100CB00031872087F90180818F5F8083DF91CF9119
:100CC0000895CF93DF93EB01488159814F3F2FEF78
:100CD000520721F4FC01A781B0850DC0DC011396F9
:100CE00001C0DF011296ED91FC91139720813181B3
:100CF00042175307B0F71296ED91FC911397FB83BF
:100D0000EA83D583C483BD83AC831396DC93CE93EF
:100D1000129799878887FC0120812F5F2083DF91BC
:100D2000CF910895CF93DF93FC01A085B185C28157
:100D3000D381848195819D838C83C481D581828177
:100D400093819B838A8311968D919C911297E817CA
:100D5000F90731F48481958112969C938E931197B3
:100D6000118610868C9181508C93DF91CF910895DC
:100D70001BBC89EF8ABD8BE08EBD89B7806189BFBE
:100D8000089531E1FC013083319722E220833197CD
:100D9000A3E3A083319760833197708331971082EA
:100DA000319760E8608331971082319762E0608309
:100DB000319763E06083319764E06083319765E049
:100DC0006083319766E06083319767E06083319795
:100DD00068E06083319769E06083319760E1608308
:100DE00031973083319732E13083319733E130836B
:100DF000319734E13083319735E13083319736E1F3
:100E00003083319737E13083319738E13083319740
:100E100039E13083319730E23083319731E23083EA
:100E200031972083319723E2208331974083319794
:100E30005083319726E22083319727E22083319730
:100E400028E22083319729E22083319720E3208311
:100E5000319721E32083869708950E94B806A091D8
:100E60000201B0910301CD91CDBFDD91DEBFFF91B5
:100E7000EF91DF91CF91BF91AF919F918F917F9132
:100E80006F915F914F913F912F911F910F91FF9023
:100E9000EF90DF90CF90BF90AF909F908F907F901A
:100EA0006F905F904F903F902F901F900F900FBECC
:100EB0000F90089581E008950F920FB6F8940F9265
:100EC0001F9211242F923F924F925F926F927F92C6
:100ED0008F929F92AF92BF92CF92DF92EF92FF924A
:100EE0000F931F932F933F934F935F936F937F9332
:100EF0008F939F93AF93BF93CF93DF93EF93FF9322
:100F0000A0910201B09103010DB60D920EB60D92A3
:100F10000E94C00EA0910201B0910301CD91CDBFFE
:100F2000DD91DEBFFF91EF91DF91CF91BF91AF9146
:100F30009F918F917F916F915F914F913F912F91F1
:100F40001F910F91FF90EF90DF90CF90BF90AF90E7
:100F50009F908F907F906F905F904F903F902F90D9
:100F60001F900F900FBE0F9008950F920FB6F89438
:100F70000F921F9211242F923F924F925F926F9285
:100F80007F928F929F92AF92BF92CF92DF92EF9219
:100F9000FF920F931F932F933F934F935F936F9302
:100FA0007F938F939F93AF93BF93CF93DF93EF93F1
:100FB000FF93A0910201B09103010DB60D920EB600
:100FC0000D920E947E0D81110E94C00EA09102011F
:100FD000B0910301CD91CDBFDD91DEBFFF91EF91C7
:100FE000DF91CF91BF91AF919F918F917F916F9141
:100FF0005F914F913F912F911F910F91FF90EF9033
:10100000DF90CF90BF90AF909F908F907F906F9028
:101010005F904F903F902F901F900F900FBE0F90BA
:1010200008950E94B5071895CF93DF93EC010E94B5
:10103000780DCE010E940411EC010E94380ECE0101
:10104000DF91CF910895CF93DF93009741F0EC01AA
:101050000E94780DCE010E949C110E94380EDF91F3
:10106000CF9108950FB6F8940F92FC01828D8111F3
:1010700002C081E001C080E00F900FBE08950FB65E
:10108000F8940F92FC01228D838D281302C081E019
:1010900001C080E00F900FBE08950F931F93CF9370
:1010A000DF93EC01042F1A8D4C8D41110CC0888107
:1010B0009981892B09F042C08A819B810E94661028
:1010C0001B821A8242C0011117C050E08C819D81A1
:1010D0000E9425122C8D8C819D81820F911D9D83F4
:1010E0008C832A813B818217930750F188819981F3
:1010F0009D838C8380E029C050E08E819F810E9477
:1011000025128C8D90E09195819591092E813F81DA
:10111000280F391F3F832E834881598124173507B3
:1011200030F42A813B81820F931F9F838E8302308C
:1011300049F4112349F0115080E007C080E005C058
:1011400080E003C080E001C080E01F5F1A8FDF9164
:10115000CF911F910F910895FC01448D4423A9F074
:1011600050E026813781240F351F37832683828103
:1011700093812817390720F0808191819783868396
:10118000CB01668177810E94251208951F93CF932A
:10119000DF93EC010FB6F8940F921E8D0BC0898976
:1011A000882351F0CE0141960E94740F81110E9454
:1011B0000010115011169CF38FEF8E8F0F900FBE01
:1011C0000FB6F8940F921D8D0BC08885882351F0BF
:1011D000CE0108960E94740F81110E9400101150D8
:1011E00011169CF38FEF8D8F0F900FBEDF91CF9173
:1011F0001F910895CF93DF93EC010FB6F8940F92EF
:10120000E881F9818B8D90E02C8D30E0829FA001E8
:10121000839F500D929F500D11244E0F5F1F5B83D3
:101220004A831A8EFD83EC830197289FA001299F92
:10123000500D389F500D1124CF01840F951F9F83AF
:101240008E838FEF8D8F8E8F61110CC088858823E0
:1012500089F0CE0108960E94740F882359F00E94ED
:101260005C0708C0CE0108960E942E06CE0141966A
:101270000E942E060F900FBE81E0DF91CF9108955E
:101280000F931F93F801611103C01183008302C003
:1012900051834083838F648F61E0CF010E94FA08FD
:1012A0001F910F910895DF92EF92FF920F931F937A
:1012B000CF93DF93E82EF62ED42E662321F0869F5F
:1012C000C001112402C080E090E04F960E941408F3
:1012D000EC01009749F08C012D2DAC01415E5F4F70
:1012E0006F2D8E2D0E944009CE01DF91CF911F916D
:1012F0000F91FF90EF90DF900895CF92DF92EF92E1
:10130000FF920F931F93CF93DF9300D000D01F92D3
:10131000CDB7DEB78C017B015D834C83C22ED12C0F
:101320000FB6F8940F92F801928D838D981718F0EC
:10133000F2E0CF1219C04C2DB701C8010E944D0830
:10134000F8019189992349F0C80141960E94740FD0
:10135000882331F00E945C0703C081110E945C0762
:101360000F900FBE81E04DC08C819D81892B21F4AF
:101370000F900FBE80E045C0D11006C0CE0101968F
:101380000E94BC0FDD24D3940F900FBE0E94780DF5
:101390000FB6F8940F92F801858D8F3F09F4158EE2
:1013A000F801868D8F3F09F4168E0F900FBEBE0197
:1013B0006C5F7F4FCE0101960E94C70F81111BC049
:1013C000C8010E943F08882381F06C817D81C8019B
:1013D00008960E94620FC8010E94C6080E94380E3B
:1013E00081119ECF0E945C079BCFC8010E94C60856
:1013F0000E94380E95CFC8010E94C6080E94380E80
:1014000080E00F900F900F900F900F90DF91CF9191
:101410001F910F91FF90EF90DF90CF90089500976C
:1014200069F0FC011382128211821082168220E080
:1014300040E050E060E070E00E947D090895CF93A5
:10144000DF93482F60E081E00E945309EC010E9485
:101450000F0ACE01DF91CF910895EF92FF920F9383
:101460001F93CF93DF938A01FC01528D338D531765
:1014700010F02230F1F4422F7801EC011E8D0E9411
:101480004D081F3F81F489898823A9F0CE01419638
:101490000E94740F882389F0E114F10481F081E047
:1014A000F70180830DC0FF24F394F10EFE8E81E0DE
:1014B00007C080E005C081E003C081E001C081E099
:1014C000DF91CF911F910F91FF90EF9008958F9230
:1014D0009F92BF92CF92DF92EF92FF920F931F9352
:1014E000CF93DF9300D000D01F92CDB7DEB78C0131
:1014F0006B015D834C83B22EE12C0FB6F8940F92F2
:10150000F801F28CFF2091F186809780B601C80126
:101510000E94AC08B11019C0FA94F801F28E8081D3
:101520009181892B29F40E94A610F801938382836C
:10153000F80180858823B1F0C80108960E94740FD5
:10154000882381F00E945C070DC0F8019782868293
:101550008189882339F0C80141960E94740F811156
:101560000E945C070F900FBE81E061C08C819D815D
:10157000892B21F40F900FBE80E059C0E11006C006
:10158000CE0101960E94BC0FEE24E3940F900FBE93
:101590000E94780D0FB6F8940F92F801858D8F3F59
:1015A00009F4158EF801868D8F3F09F4168E0F9081
:1015B0000FBEBE016C5F7F4FCE0101960E94C70F28
:1015C000811129C0C8010E9432088823F1F0F80176
:1015D00080819181892B49F40FB6F8940F92828112
:1015E00093810E9404100F900FBE6C817D81C80111
:1015F00041960E94620FC8010E94C6080E94380EE0
:1016000081117BCF0E945C0778CFC8010E94C60879
:101610000E94380E72CFC8010E94C6080E94380E80
:10162000C8010E943208882309F467CF80E00F9038
:101630000F900F900F900F90DF91CF911F910F910E
:10164000FF90EF90DF90CF90BF909F908F90089584
:10165000FC0122853385265B304059F4FC018489E6
:101660009589F0E08F3B9F0731F0892B31F080E0C6
:10167000089580E0089580E0089581E00895E09164
:10168000CA00F091CB008081811107C08FEF9FEFDE
:101690009093AC008093AB000895E091CA00F09164
:1016A000CB000580F681E02D0680F781E02D828158
:1016B00093819093AC008093AB0008956F927F92DA
:1016C0008F929F92AF92BF92CF92DF92EF920F9341
:1016D0001F93CF93DF93CDB7DEB74C01F501878918
:1016E000908D215031093C01620E731E20E00FC025
:1016F000822F90E0FB01E80FF91F3081D501A80F80
:10170000B91F59963C938081882319F02F5F2830A8
:1017100078F3F50110A2F3E0FE1520F40F2EF3E0AC
:10172000EF2EF02DF501E68AE1A212A2C501029684
:101730000E943C06C5010C960E943C06F501B1864C
:10174000A08684E090E08E19910995878487B38AFA
:10175000A28A13A214A215A216A217A2A801B4016C
:10176000C3010E94C106F50191838083C114D10495
:1017700019F0F601B182A082DF91CF911F910F91F4
:10178000EF90DF90CF90BF90AF909F908F907F9021
:101790006F9008958091DE008230E0F30E945C0734
:1017A000F9CFCF93C0E010C08C2F90E09C01220FA6
:1017B000331F220F331F220F331F820F931F8252BA
:1017C0009F4F0E942E06CF5FC43070F385ED90E0EE
:1017D0000E942E068CEC90E00E942E068FEB90E08B
:1017E0000E942E0686EB90E00E942E0685ED90E08A
:1017F0009093CB008093CA008CEC90E09093C9004A
:101800008093C800CF910895CF93DF93EC010FB67A
:10181000F8940F928091B5008F5F8093B50080910E
:10182000020190910301892B59F4D0930301C093D5
:1018300002018091B500813099F40E94D10B10C053
:101840008091B10081110CC0E0910201F09103017F
:1018500096898E89891720F0D0930301C0930201E5
:101860008091AD008F5F8093AD008E899091B20022
:10187000981710F48093B20090E09C01220F331F60
:10188000220F331F220F331F820F931FBE016E5F83
:101890007F4F82529F4F0E9440060F900FBE809153
:1018A000B100882351F0E0910201F0910301968983
:1018B0008E89981710F40E945C07DF91CF910895EC
:1018C000FF920F931F93CF93DF93EC01F62E0091BD
:1018D000B3001091B400809102019091030102962F
:1018E0000E949206CF3F8FEFD80769F4FF2059F08E
:1018F00060910201709103016E5F7F4F86EB90E073
:101900000E9440062FC0C00FD11FE0910201F0914C
:101910000301D383C283C017D10768F46091020129
:10192000709103018091C8009091C9006E5F7F4F54
:101930000E94610617C060910201709103018091BD
:10194000CA009091CB006E5F7F4F0E94610680912C
:10195000AB009091AC00C817D90720F4D093AC002D
:10196000C093AB00DF91CF911F910F91FF9008952D
:101970002F923F924F925F926F927F928F929F929F
:10198000AF92BF92CF92DF92EF92FF920F931F938D
:10199000CF93DF933C011B015A012901CA010E9428
:1019A00014086C01892B71F088E290E00E94140801
:1019B000EC01892B19F0D88ECF8A06C0C6010E948F
:1019C000230802C0C0E0D0E0209791F0950140E0EC
:1019D00050E0812C912C5E016701E02E8201B10163
:1019E000C3010E945E0BCE010E94040C81E001C085
:1019F0008FEFDF91CF911F910F91FF90EF90DF90CC
:101A0000CF90BF90AF909F908F907F906F905F909E
:101A10004F903F902F9008950F931F93CF93DF9394
:101A20000097B9F1209102013091030182179307C9
:101A300081F1EC010FB6F8940F920E94280B8823D5
:101A400031F18E010E5F1F4FC8010E9492068E89F0
:101A50009091B200981710F48093B20090E09C012E
:101A6000220F331F220F331F220F331F820F931FAA
:101A7000B80182529F4F0E9440069E89E091020168
:101A8000F09103018689981710F00E945C070F906F
:101A90000FBEDF91CF911F910F910895EF92FF92AA
:101AA0000F930F2EF9EAEF2EF0E0FF2EF02D00E05D
:101AB00020E030E045E550E067E970E08AEC9BE02B
:101AC0000E94B80C813081F4F8948FEF9FEF9093CF
:101AD000AC008093AB0081E08093B1001092B40021
:101AE0001092B3000E942D070F91FF90EF90089580
:101AF0008091A8008F5F8093A8000895DF92EF92F5
:101B0000FF920F931F93CF93DF938091A8008111D1
:101B100097C0E090B300F090B4008FEFE81AF80A95
:101B2000F092B400E092B300E114F104B9F48091B2
:101B3000CA009091CB002091C8003091C900309329
:101B4000CB002093CA009093C9008093C800809175
:101B5000AE008F5F8093AE000E943F0B8091AB0080
:101B60009091AC00E816F90628F4D12C53C0DD247E
:101B7000D39401C0D12CE091CA00F091CB008081B8
:101B8000811107C08FEF9FEF9093AC008093AB0063
:101B900041C0E091CA00F091CB000580F681E02DB4
:101BA000C681D7818A819B81E816F90628F4909333
:101BB000AC008093AB002EC08E010E5F1F4FC8019A
:101BC0000E9492068C899D89892B21F0CE010C966A
:101BD0000E9492068E899091B200981710F480931B
:101BE000B20090E09C01220F331F220F331F220FFF
:101BF000331F820F931FB80182529F4F0E944006ED
:101C00009E89E0910201F09103018689981708F0FE
:101C1000AECFB1CFE0910201F0910301868990E04F
:101C2000FC01EE0FFF1FEE0FFF1FEE0FFF1F8E0FC9
:101C30009F1FFC01E252FF4F8081823040F409C0B7
:101C40008091B0008F5F8093B000D12C02C0DD2462
:101C5000D3948091AF00882311F0DD24D3948D2D8F
:101C6000DF91CF911F910F91FF90EF90DF9008953A
:101C70000F931F93CF93DF930FB6F8940F92809139
:101C8000A80081508093A8008091A800811158C0BD
:101C90008091B500811133C056C0E091C400F0912D
:101CA000C500C681D781CE010C960E9492068E0196
:101CB0000E5F1F4FC8010E9492068E899091B2005C
:101CC000981710F48093B20090E09C01220F331F0C
:101CD000220F331F220F331F820F931FB80182522E
:101CE0009F4F0E9440069E89E0910201F0910301FE
:101CF0008689981730F081E08093AF0002C0C0E081
:101D0000D0E08091BF008111C8CFCD2B11F00E948F
:101D10003F0BC091B000CC2359F00E947E0D882368
:101D200019F081E08093AF00C150B9F71092B00074
:101D30008091AF00882331F00E945C0781E003C0EE
:101D400080E001C080E00F900FBEDF91CF911F9126
:101D50000F910895CF93DF93EC01892B49F00E94F6
:101D6000780D60E0CE010E94600C0E94380E01C028
:101D700080E0811102C00E945C07DF91CF9108953D
:101D80008091A800882321F081E08093AF0008951E
:101D90001092AF002091B20001C02150822F90E03C
:101DA000FC01EE0FFF1FEE0FFF1FEE0FFF1FE80FEE
:101DB000F91FE252FF4F3081332379F3AC01440F16
:101DC000551F440F551F440F551F480F591FDF0162
:101DD0000180F281E02D0280F381E02D1296FC93C8
:101DE000EE9311974F515F4FE417F50729F44281A5
:101DF0005381FD0152834183FC01EE0FFF1FEE0F63
:101E0000FF1FEE0FFF1F8E0F9F1FFC01E252FF4FBF
:101E10000180F281E02D8681978190930301809368
:101E200002012093B20008950F931F93CF93DF9385
:101E3000EC010FB6F8940F92892B21F4C0910201A6
:101E4000D09103018E010E5F1F4FC8010E949206C0
:101E50008C899D89892B21F0CE010C960E949206D7
:101E6000B80186EB90E00E9440060F900FBE809173
:101E7000B100882339F00FB6F8940F920E943F0BFF
:101E80000F900FBE8091020190910301C817D907EE
:101E9000A1F48091B100882319F00E945C070DC065
:101EA0009091B6008091B500981305C0109203017F
:101EB0001092020102C00E94C00EDF91CF911F91CB
:101EC0000F910895CF93DF93EB0160910201709120
:101ED0000301645F7F4F0E94610661E0CE010E94B2
:101EE000600CDF91CF9108950F931F93CF93DF93F1
:101EF000DC011596ED91FC911697C681D7818E0174
:101F0000045F1F4FC8010E9492068091A8008111B2
:101F10001CC00A501109C8010E9492068E89909136
:101F2000B200981710F48093B20090E09C01220F49
:101F3000331F220F331F220F331F820F931FB8014D
:101F400082529F4F0E94400605C0B8018FEB90E07F
:101F50000E9440069E89E0910201F091030186896A
:101F6000891720F481E08093AF0001C080E0DF9109
:101F7000CF911F910F9108952091AE00FC01208315
:101F80002091B3003091B4003283218308950FB6BD
:101F9000F8940F924091B3005091B400DB012D9161
:101FA0003C912F3FBFEF3B0719F1DC01FC91E09121
:101FB000AE00FE1739F01196ED91FC9112974E1775
:101FC0005F07C0F4DC011196ED91FC911297DA01E4
:101FD000AE1BBF0BA217B30778F4DB01E41BF50BB4
:101FE0002E0F3F1F2D933C930E94BC0F80E005C035
:101FF00080E003C081E001C081E00F900FBE089532
:1020000081E08093AF0008950F931F93CF93DF93E8
:10201000FC01892B09F455C02689A0910201B091D9
:10202000030156968C91281708F04BC0848595853E
:10203000992364F0A0910201B091030156963C915E
:1020400084E090E0831B910995878487828593853E
:1020500030E0A901440F551F440F551F440F551F71
:10206000240F351F22523F4F8217930719F58F0116
:10207000EF012296CE010E949206E0910201F091BA
:1020800003018689F801868B9091B200981710F4AD
:102090008093B20090E09C01220F331F220F331F68
:1020A000220F331F820F931FBE0182529F4F0E9447
:1020B000400607C0A0910201B091030156968C9191
:1020C000868BDF91CF911F910F9108950F931F93EE
:1020D000CF93DF93FC01892B79F182A1815082A3F8
:1020E000268991A1291751F181112AC0EF018F0191
:1020F0000E5F1F4FC8010E94920689A18E8B24E0BB
:1021000030E0281B31093D872C879091B200981749
:1021100010F48093B20090E09C01220F331F220F35
:10212000331F220F331F820F931FB80182529F4F1C
:102130000E94400681E005C080E003C080E001C04D
:1021400080E0DF91CF911F910F910895809102015E
:1021500090910301892B39F0E0910201F091030184
:1021600082A18F5F82A38091020190910301089563
:10217000A1E21A2EAA1BBB1BFD010DC0AA1FBB1F8B
:10218000EE1FFF1FA217B307E407F50720F0A21BFD
:10219000B30BE40BF50B661F771F881F991F1A946A
:1021A00069F760957095809590959B01AC01BD0194
:1021B000CF01089597FB10F8169400080F9308308C
:1021C00098F00850232F342F452F562F672F782F44
:1021D000892F902DF4CF05949795879577956795DE
:1021E00057954795379527950A95AAF70F91089522
:1021F0000024A7FD00942A0F301D401D501D601DB6
:10220000701D801D901D08950F931F93CF93DF9332
:102210008230910510F482E090E0E0912401F09189
:10222000250120E030E0A0E0B0E0309719F14081D6
:1022300051810281138148175907C8F08417950707
:1022400069F4109731F012960C93129713961C9321
:1022500027C0009324011093250122C021153105C8
:1022600019F04217530718F49A01BD01EF01DF017D
:10227000F801DBCF21153105F9F0281B390B24308B
:10228000310580F48A819B816115710521F0FB0184
:102290009383828304C09093250180932401FE01DF
:1022A000329644C0FE01E20FF31F819391932250B6
:1022B0003109398328833AC02091220130912301CA
:1022C000232B41F42091620030916300309323016D
:1022D0002093220120916000309161002115310589
:1022E00041F42DB73EB74091640050916500241B26
:1022F000350BE0912201F0912301E217F307A0F4DE
:102300002E1B3F0B2817390778F0AC014E5F5F4F4B
:102310002417350748F04E0F5F1F50932301409359
:1023200022018193919302C0E0E0F0E0CF01DF91C0
:10233000CF911F910F910895CF93DF93009709F4E8
:1023400081C0FC01329713821282A0912401B091C6
:102350002501109781F420813181820F931F2091F4
:102360002201309123012817390751F5F0932301F9
:10237000E093220167C0ED0120E030E0CE17DF07D7
:1023800040F44A815B819E0141155105F1F0EA015B
:10239000F5CFD383C28340815181840F951FC81725
:1023A000D90759F488819981840F951F02969183EA
:1023B00080838A819B81938382832115310529F44F
:1023C000F0932501E09324013DC0E901FB83EA83FA
:1023D00049915991C40FD51FEC17FD0761F4808115
:1023E0009181840F951F0296E901998388838281E8
:1023F00093819B838A83E0E0F0E012968D919C911B
:102400001397009719F0FD01DC01F7CF8D919C9196
:1024100011979D012E5F3F4F820F931F2091220144
:10242000309123012817390769F4309729F4109265
:1024300025011092240102C013821282B09323015D
:10244000A0932201DF91CF910895FB01DC0102C02E
:1024500001900D9241505040D8F70895F894FFCF65
:1024600000002601200001000000D0020000000052
:10247000180A150200140A02003900013900023955
:1024800000043900083900103900203300103300EF
:0C2490002033004033008049444C4500DC
:00000001FF
